:020000040800F2
:10000000D004002001010008CD260008E11B0008F3
:10001000C926000855070008E12600080000000076
:10002000000000000000000000000000D5260008CD
:100030005907000800000000D1260008D926000852
:100040001B0100081B0100081B0100081B01000820
:100050001B0100081B0100081B0100081B01000810
:100060001B0100081B0100081B0100081B01000800
:100070001B0100081B0100081B0100081B010008F0
:100080001B0100081B0100081B0100081B010008E0
:100090001B0100081B0100081B0100081B010008D0
:1000A0001B0100081B0100081B0100081B010008C0
:1000B0001B0100081B0100081B0100081B010008B0
:1000C0001B0100081B0100081B0100081B010008A0
:1000D0001B0100081B0100081B0100081B01000890
:1000E0001B0100081B0100081B010008DFF80CD0F1
:1000F00000F0ECFA0048004705270008D004002073
:100100000648804706480047FEE7FEE7FEE7FEE7B1
:10011000FEE7FEE7FEE7FEE7FEE7FEE7DD26000876
:10012000ED0000082DE9FE4F81EA030404F00044CD
:1001300021F0004100944FF0000B23F0004350EAFF
:1001400001045ED052EA03045BD0C3F30A54C1F346
:100150000A552C44A4F2F3340194A0FB0254C1F3D9
:10016000130141F48011C3F3130343F4801301FB23
:10017000024400FB034E840A970A44EA815447EA8A
:100180008357A4FB076802958D0A05FB07854FEA94
:10019000932C04FB0C542705029D4FEA065847EAAE
:1001A0001637B5EB08056EEB070C870E920E47EA83
:1001B000811742EA8312A7FB0201B6EB0B0164EB45
:1001C00000042B0D43EA0C335E1844EB1C50DA4656
:1001D0005146E7FB0201C5F313044FEA0B3343EA30
:1001E00014534FEA0432019C43EA0603A4F10C04C1
:1001F0000294009CCDE900B400F042F903B0BDE8E0
:10020000F08F00200146F9E72DE9F04D81EA030463
:1002100004F0004B21F0004514464FF0000A23F093
:10022000004150EA050220D054EA01021DD0C5F376
:100230000A570246C5F31303C1F31300C1F30A566C
:1002400040F4801543F48013A7EB0608101BD64634
:1002500008F2FD3873EB050002D308F1010801E054
:1002600092185B41B8F1000F03DA00200146BDE8A7
:10027000F08D00204FF48011064684460EE0171BD7
:1002800073EB050705D3121B63EB050306434CEA2A
:10029000010C49084FEA300092185B4150EA01070F
:1002A000EDD152EA030012D082EA040083EA05018C
:1002B000084305D0101BAB4106D20122002306E003
:1002C00000224FF0004302E06FF0010253101AEBDE
:1002D00006004CEB085110EB0A0041EB0B01BDE8A6
:1002E000F04D00F0BEB80EB5C10F80EAE0700844D2
:1002F000CA07002140F233438DE80E000A460B4640
:1003000000F0BEF803B000BD00F0004230F0004045
:100310000AD0C10D01F56071C0F3160042EA015127
:10032000C20840071143704700200146704701F0A2
:10033000004330B421F0004150EA010206D00A0D1A
:10034000A2F56072C1F31301002A02DC30BC002068
:100350007047440F44EAC104C100E01830BC00EB10
:10036000C25000F047B830B50B46014600202022AD
:10037000012409E021FA02F59D4205D303FA02F5B2
:10038000491B04FA02F52844151EA2F10102F1DC12
:1003900030BD2DE9F05F0546002092469B46884619
:1003A0000646814640241BE02846414647462246F1
:1003B00000F0ADF953465A46C01A914110D3114688
:1003C0001846224600F094F92D1A67EB01084F46B3
:1003D00022460120002100F08BF917EB00094E4165
:1003E000201EA4F10104DFDC484631462A4643467C
:1003F000BDE8F09F0029A8BF7047401C490008BF16
:1004000020F00100704710B4B0FA80FC00FA0CF044
:1004100050EA010404BF10BC704749B1CCF120047C
:1004200021FA04F411FA0CF118BF01212143084309
:10043000A3EB0C01CB1D4FEA00614FEA102042BF35
:10044000002010BC704700EBC35010440029A4BF2B
:1004500010BC7047401C490008BF20F0010010BCD0
:10046000704710B5141E73F1000408DA401C41F106
:10047000000192185B411A4301D120F0010010BD28
:100480002DE9F04D92469B4611B1B1FA81F202E09E
:10049000B0FA80F22032904600F02AF904460F4666
:1004A00040EA0A0041EA0B0153465A46084313D07A
:1004B000114653EA010019D0C8F14002504600F03D
:1004C00026F905460E4650465946424600F010F9B8
:1004D000084305D0012004E020463946BDE8F08DF0
:1004E0000020054346EAE0762C4337430A9863052B
:1004F000E40AA0EB08000022FD0A44EA47540A304F
:1005000002D500200146E9E7010510196941DDE93E
:10051000084500196941BDE8F04DA2E72DE9FE4FFD
:10052000804681EA0300C00F0C46009021F0004194
:1005300023F00045B8EB0200A94105D24046214610
:1005400090461C460B46024623F00040104347D01D
:10055000270DC7F30A00C3F30A510290401A019015
:1005600040286BDAC3F3130040F4801B00989246D6
:1005700020B10023D2EB030A63EB0B0B0198594621
:10058000C0F14002504600F0B3F806460D46504612
:100590005946019A00F0CBF810EB080061410024A5
:1005A00087EA115284EAE7731A4340D0009A62B393
:1005B000019A012A4FEA075215DC001B61EB020188
:1005C0004FF0004202EA0752CDE90042001C41F51B
:1005D000801132462B46FFF753FF03B0BDE8F08F82
:1005E00040462146F9E7001B61EB0201001C41F582
:1005F000801300185B412018A2F5001747EB030198
:1006000040EAD570B6196D4111E06D084FEA360623
:1006100045EAC0754FEA0752001B61EB0201001C5E
:1006200041F5801149084FEA300000195141324626
:100630002B4603B0BDE8F04FFFF713BF009801222F
:1006400040000023D0EB020263EBE07300982146E8
:100650004FEAE074B8EB000061EB0401E9E783F0D6
:1006600000435BE781F0004158E7C1F30A52C1F350
:10067000130140F2FF3341F480119A4202DA002064
:100680000146704740F233439A42A2F2334202DC01
:10069000524200F03CB800F02BB8000030B5041E08
:1006A00071F1000404DB4FF00044404264EB0101AF
:1006B000141E73F1000405DB1C464FF00043524248
:1006C00063EB0403994208BF904230BD064C074DCE
:1006D00006E0E06840F0010394E807009847103412
:1006E000AC42F6D3FFF706FDE831000808320008F7
:1006F000202A04DB203A00FA02F1002070479140E2
:10070000C2F1200320FA03F3194390407047202AD6
:1007100004DB203A21FA02F00021704721FA02F3AB
:10072000D040C2F120029140084319467047202A68
:1007300006DBCB17203A41FA02F043EAE07306E009
:1007400041FA02F3D040C2F1200291400843194619
:1007500070470000FEE7000070470000EFF31080D4
:1007600072B600BFFEE70000B0B5044600F01AF90B
:10077000054640F20400C2F200000078611C18BF78
:10078000044400BF00F00EF9401BA042FAD3B0BDF4
:100790002DE9F04F82B041F20042C4F201020E682E
:1007A0000423904208BF0323002E009300F0F6803C
:1007B00040F20C4E4FF6FF7CC4F2010E00220124E1
:1007C000C1F2100C4FF0000A4FF0000943E000BFE7
:1007D000012502F00C040F27A7402BEA070705FAB2
:1007E00004F43C4343F82640D1F804B040F20045FD
:1007F000C4F201055FEACB332B6854BF23EA080338
:1008000043EA08032B606B685FEA8B3454BF23EA2A
:10081000080343EA08036B605FEACB24AB6854BF6C
:1008200023EA080343EA08035FEA8B24AB60DEF89F
:1008300000304FF0010454BF23EA080343EA0803E1
:10084000CEF800300E680AF1010A36FA0AF302F116
:10085000040200F0A38004FA0AF816EA080FF1D0A7
:100860004B68634512DC122B56D8DFE803F0350BDA
:100870004549555555555555555555555555554D4C
:10088000510000BFD1F80C9046E000BF4FF6FF7753
:10089000C1F22107BB420FDC0027C1F21107BB42A6
:1008A0001AD00027C1F21207BB4215D00027C1F2AF
:1008B0002107BB4210D02FE00027C1F22207BB4224
:1008C0000AD00027C1F23107BB4205D00027C1F290
:1008D0003207BB4220D100BF8B684BB1012B14BF44
:1008E000C0F81480C0F810804FF0080914E000BF71
:1008F0004FF0040910E000BFCB6803F108090BE0DA
:100900004FF0000908E000BFCB6803F1040903E0E1
:10091000CB6803F10C0900BF13460546BAF1080F76
:1009200024BF203B04352E680F279F40BE4309FAA1
:1009300003F333432B60CB79DB067FF583AF41F2C2
:100940001804C4F2020423684FEA9A0643F0010334
:100950002360236840F6000403F001030193019B28
:1009600040F20043C4F20103A3F57E7353F826B0AE
:10097000C4F20104A0420FD040F60044C4F20104C6
:10098000A0423FF425AF41F20004C4F20104009DEF
:10099000A04208BF02251CE700251AE702B0BDE807
:1009A000F08F000040F2CC00C2F2000000687047F7
:1009B00070B5B8B3044690F83D0028B9002084F81B
:1009C0003C00204600F0BAFB242084F83D0020685B
:1009D000016821F001010160016841F400410160FA
:1009E000016821F40041016000F05EFD48F28041A1
:1009F000C0F21E0140F60013D4F804E088424FF024
:100A00000001C0F23D0348F2A16C4FF0000238BF74
:100A100001219842C0F2010C38BF0122E64538BFDF
:100A20000A460AB1012070BD4DF68361C4F21B3144
:100A3000A0FB01122168950C4B684FF4967623F0C9
:100A40003F0343EA9243754344F6D3564B60C1F2E9
:100A500062060B6AA5FB0656B50923F03F03E6457F
:100A600038BF950C6A1C1A430A62CA6948F2A0662C
:100A70004CF6FF73C0F20106B64522EA03020BD81A
:100A800001384FEA4E03B0FBF3F001306FF31F3033
:100A9000042898BF04201EE0A368013863B119231D
:100AA0000EFB03F3B0FBF3F001306FF31F3078B1AE
:100AB00000F5804008E000BF0EEB4E03B0FBF3F002
:100AC00001306FF31F3028B100F5004003E000BF94
:100AD000012000E001201043C8610868D4E9072321
:100AE00020F0C000104318430860886848F2FF32C5
:100AF00004F10C0690434CCE18431043A56988605E
:100B0000C86820F0FF0030432843C860086840F000
:100B10000100086000202021206484F83D1020633B
:100B200084F83E0070BD00002DE9F04F85B004460A
:100B300000201E4617460D460490FFF733FF94F839
:100B40003D10202923D1804620688169890719D565
:100B5000FFF728FFA0EB08001928F5D90020202175
:100B6000206384F83D1084F83E00206C04F13C09B9
:100B700040F0200020640220002189F8001005B018
:100B8000BDE8F08FA14619F83C1F012904D10220CD
:100B900005B0BDE8F08F00BF012289F8002003688E
:100BA000DDE90F1A0E9ADB0703D1036843F0010356
:100BB0000360036823F400630360222084F83D008F
:100BC000402084F83E000020206462626185608DD0
:100BD000294620850020CFF6FF70E06220463A4685
:100BE0003346CDF800A0CDF8048000F0FBFF18B12B
:100BF000012005B0BDE8F08F208D022810D001281B
:100C000024D0002838D10020039020684169039146
:100C1000816903910399016841F40071016037E033
:100C20002068016841F400610160EFF3108072B642
:100C30000020039020684169039181690391039921
:100C4000016821F48061016062B621E020680168DA
:100C500021F480610160EFF3108072B600200390F0
:100C6000206841690391816903910399016841F406
:100C70000071016062B60BE02068016841F4806198
:100C800001600021039141690391806903900398F9
:100C9000208D002800F0238140F20C0B4BF2895785
:100CA0000AF10105C2F2000BC1F2F847232680B217
:100CB000032819D8022845D001286FD1BAF1000FB6
:100CC00000F0FA802068014651F8142F520600F116
:100CD000F7800868C00600F12F81FFF763FEA0EBE4
:100CE00008005045EED91CE1BAF1000F12D000BF48
:100CF0002068014651F8142F520610D40868C00627
:100D000000F11A81FFF74EFEA0EB08005045EFD925
:100D100007E100BF20684169490640F1FB80006996
:100D2000616A0870606A2268411C208D6162013826
:100D30002085638D013B638553695B0740F1CC805F
:100D40001069BFE020684169490711D4002D00F007
:100D50009380BAF1000F00F0E280FFF723FEA0EBD2
:100D60000800504500F2DD80206840694007F4D556
:100D7000EFF3108072B62068616A026842F4007274
:100D8000026000690870606A218D01306062481E4F
:100D90002085608D0138608562B668E02068416911
:100DA000490710D4002D77D0BAF1000F00F0B780BA
:100DB000FFF7F8FDA0EB0800504500F2B280206874
:100DC00041694907F4D5016821F480610160EFF3BE
:100DD000108072B62068616A00690870606A218DAF
:100DE0000130013960622185618D01396185DBF84F
:100DF0000010C908A1FB0712110A7143049104995C
:100E0000013904910499002976D021684A69520772
:100E10001DD4049901390491049900296CD02168EA
:100E20004A69520713D4049901390491049900299D
:100E300062D021684A69520709D4049901390491A2
:100E40000499002958D021684A695207D7D50A6801
:100E500042F400720A6009690170606A218D0130F4
:100E60006062481E2085608D0138608562B620680A
:100E7000616A006926E000BF416949073FF578AF24
:100E8000416949075CBF41695FEA41713FF570AF55
:100E900041694907F0D56BE74169490793D4416936
:100EA00049075CBF41695FEA41713FF58CAF416919
:100EB0004907F1D587E700BF20684169490629D570
:100EC0000069616A0870606A218D01306062481EA5
:100ED0002085618D0139618501047FF4E8AE202011
:100EE00084F83D00002084F83E00002189F80010BD
:100EF00005B0BDE8F08F00BF00202021206384F8FA
:100F00003D1084F83E00206C40F02000206462B662
:100F10001EE000BF50F8141FC90601460CD4FFF7AD
:100F200041FD00202021206384F83D1084F83E001C
:100F3000206C40F020000AE06FF0100008600020F4
:100F40002021206384F83D1084F83E00206C20644A
:100F50000120002189F8001005B0BDE8F08F0000E5
:100F60002DE9F04383B0994616460F460446FFF735
:100F700019FD94F83D1020291CD10546206881698F
:100F8000890713D5FFF70EFD401B1928F6D900205D
:100F90002021206384F83D1084F83E00216C41F04C
:100FA0002001216484F83C0004E000BF94F83C1068
:100FB000012903D1022003B0BDE8F083012284F8A7
:100FC0003C200368DDE90B180A9ADB0703D10368AC
:100FD00043F001030360036823F4006303602120EE
:100FE00084F83D00402084F83E00002020646262C6
:100FF0006185608D394620850020CFF6FF70E06264
:10100000204632464B46CDF80080019500F07AFF2D
:1010100020B1012003B0BDE8F08300BF208D00287F
:1010200050D0206808F10106014651F8142F12062D
:101030002CD49EB1B8F1000F5AD000BF086840050B
:101040005ED4FFF7AFFC401B404556D820680146F0
:1010500051F8142F1206F1D518E000BF0A685205A6
:101060004ED40A68120611D40A68520548D40A6898
:1010700012060BD40A68520542D40A68120605D437
:101080000A6852053CD40A681206E7D5626A11461E
:1010900011F8013B0361238D6162591E2185678D23
:1010A000013F678547697F070AD50F0408D051784B
:1010B0000161911C6162991E2185628D013A6285F0
:1010C0000904B1D1204641462A4601F055F838BB03
:1010D0002068016841F400710160202084F83D001F
:1010E000002084F83E0084F83C0003B0BDE8F083A3
:1010F0000868400504D4FFF755FC202004E000BF39
:101100006FF480600860042000212022216384F8AD
:101110003D2084F83E10226C1043206484F83C107B
:10112000206C04287FF475AF2068016841F40071D9
:101130000160012003B0BDE8F083000010B586B067
:1011400045F200410068C4F2000100228842049286
:1011500002D006B010BD00BF41F21804C4F2020470
:10116000206840F008002060206800F0080001902E
:101170000198C0200290122003900320059001F5F1
:10118000384002A9FFF704FB606840F4001060607B
:10119000606800F400100190019806B010BD0000D6
:1011A00040F2040040F2CC01C2F20000C2F20001A1
:1011B00000780A68104408607047000080B542F269
:1011C0000000C4F20200016841F010010160032038
:1011D00000F07AF80F2000F005F800F027F8002062
:1011E00080BD000070B540F20406C2F2000640F275
:1011F0000C013278C2F200014FF47A730968B3FB34
:10120000F2F20446B1FBF2F1084600F04FFB0F2C5E
:101210004FF0010508D838B94FF0FF3021460022C1
:10122000002500F025F87460284670BD82B041F2B8
:101230001800C4F202000168022241F001010160BD
:10124000016801F0010101910199416841F080516B
:101250004160406800F08050009000980420C4F283
:101260000100016862F31A61016002B0704700007A
:1012700010B54EF60C5CCEF2000CDCF80030C3F377
:10128000022E8EF00704042C28BF0424BEF10303B1
:101290004FF0FF3E0EFA04F438BF0023A1439940FB
:1012A0000EFA03F39A43114300F00F02043A62442A
:1012B00009010C3200F16043B0F1FF3FC8BF03F5F4
:1012C0006442117010BD00004EF60C51CEF20001C8
:1012D0000A684FF6FF031A4060F30A2242F080606A
:1012E00040F0FD70086070472DE9F04381B00028A0
:1012F00000F0858042F20008C4F202080446D8F8E3
:1013000000000D4600F0070088420CD2D8F800001B
:1013100020F007002843C8F80000D8F8000000F0CB
:101320000700A8426BD1206841F204098107C4F28A
:10133000020917D5410705D5D9F8001041F4E0613D
:10134000C9F80010010705D5D9F8001041F4605123
:10135000C9F80010D9F80010A26821F0F00111437B
:10136000C9F80010C00741D1D8F8000000F007000C
:10137000A8420CD9D8F8000020F007002843C8F88C
:101380000000D8F8000000F00700A84237D120681C
:10139000410707D5D9F80010E26821F4E061114354
:1013A000C9F80010000708D5D9F80000216920F419
:1013B000605040EAC100C9F80000D9F8002002F0EE
:1013C0000C00082841F20020C0F27A0050D143F20C
:1013D000C213C2F38341C0F60003595CD2033BD46D
:1013E00040F60010C0F23D00484341E0606802282A
:1013F0000AD001282AD159F8041C890308D40120F5
:1014000001B0BDE8F08300BF59F8041C8901F6D58E
:10141000D9F8001021F003010843C9F80000FFF7D4
:10142000C1FA064641F28837D9F80000616800F039
:101430000C00B0EB810F97D0FFF7B4FA801BB842D5
:10144000F2D9032001B0BDE8F08300BF59F8041CB5
:101450008907D4D5DCE700BFD9F8002043F2A813F0
:10146000C2F34042C0F600039A5C4843B0FBF2F07E
:10147000D9F8001043F2AA12C1F30311C0F600021A
:10148000515C40F20C0220FA01F140F20800C2F275
:1014900000000068C2F200021160FFF7A3FE002006
:1014A00001B0BDE8F083000040F20C0041F20401FD
:1014B000C2F20000C4F202010068096843F2BA12E5
:1014C000C1F30221C0F60002515CC8407047000021
:1014D00040F20C0041F20401C2F20000C4F2020129
:1014E0000068096843F2BA12C1F3C221C0F60002D3
:1014F000515CC840704700002DE9F04182B00028DF
:1015000068D00446007841F20006C007C4F2020623
:1015100025D0706800F00C0004281BD0706800F023
:101520000C00082802D17068C00313D4606800283A
:1015300000F06881B0F5A02F00F07C81B0F5803F0D
:1015400000F07C81306820F480303060306820F416
:10155000802076E13068800301D56068D0B32078C0
:10156000800718D5706810F00C0F07D0706800F075
:101570000C0008286ED17068C0036BD430688007F7
:1015800002D52069012825D13068616920F0F80072
:1015900040EAC1003060207800071FD4207840075F
:1015A00032D4E56995B1706800F00C00082840F06D
:1015B0008F80012D0ED07068216A00F480328A423B
:1015C00008D1616A00F47010884203D1002002B093
:1015D000BDE8F081012002B0BDE8F081A0690028DB
:1015E00062D00020C4F242200121C0F88014FFF72D
:1015F000D9F90546706A800700F18C80FFF7D2F9AF
:10160000401B0228F6D92AE1F06910F0805808D171
:10161000F06940F08050F061F06900F08050009077
:10162000009847F20007C4F200073868C00529D4C3
:10163000386840F480703860FFF7B4F9054600BFA1
:101640003868C0051ED4FFF7ADF9401B6428F7D9F0
:1016500005E100BF2069002840F20000C4F24220EA
:1016600000F0828001210160FFF79CF9054600BF70
:10167000306880073FF588AFFFF794F9401B0228D8
:10168000F6D9ECE0E068002800F08080052800F042
:101690009780012800F09880306A20F001003062C5
:1016A000306A20F0040092E00020C4F242200021C1
:1016B000C0F88014FFF776F9054600BF706A80070E
:1016C0007FF56CAFFFF76EF9401B0228F6D9C6E034
:1016D0000027C4F2422700203866FFF763F9022D85
:1016E00005460BD13068800140F1BE80FFF75AF902
:1016F000401B02284FF00300F4D968E730688001EE
:101700007FF564AFFFF74EF9401B02284FF003004E
:10171000F4D95CE740F20C00C2F20000006844F625
:10172000D351C1F26201A0FB0101480A019000BF40
:1017300000BF0198411E002801913FF42FAF00BF68
:101740000198411E002801913FF428AF00BF019885
:10175000411E002801913FF421AF00BF0198411EB6
:1017600000280191E4D119E700210160FFF71AF97F
:10177000054600BF306880077FF50DAFFFF712F90F
:10178000401B02284FF00300F4D920E7306A20F014
:1017900001003062306A20F004003062FFF702F985
:1017A000054641F2883700BF306A800720D5FFF731
:1017B000F9F8401BB8424FF00300F5D907E700BF26
:1017C000306A40F004003062306A40F0010030625C
:1017D000FFF7E8F8054641F2883700BF306A800716
:1017E00006D4FFF7DFF8401BB842F7D937E000BF57
:1017F000B8F1000F7FF4D5AEF06920F08050F061B1
:10180000CFE600BF306820F480303060306820F4CC
:1018100080203060FFF7C6F8054600BF30688003BF
:101820007FF59DAEFFF7BEF8401B64284FF0030024
:10183000F4D9CCE6306840F480203060306840F461
:1018400080303060FFF7AEF8054600BF3068800397
:101850003FF585AEFFF7A6F8401B6428F6D90320B4
:1018600002B0BDE8F08100BF206AB0F5803F05D12D
:101870007168A26821F40031114371607168626A75
:1018800021F4741110430843706001203866FFF79B
:1018900089F80446306880013FF598AEFFF782F87A
:1018A000001B02284FF00300F4D990E6411E0020EF
:1018B000B0EB116F1CBF012070474EF21002CEF248
:1018C000000251604EF62351CEF20001F0230B705E
:1018D0000721906011607047002804BF0120704705
:1018E00010B5044690F83D0028B9002084F83C006B
:1018F000204600F05FF8242084F83D002068D4E9F9
:101900000212C36823F40053C360036923F44053F5
:101910001A430261D4E904231143C268194341F216
:101920000C639A431143C1604169A26921F440717B
:10193000114343F60002C4F201029042416103D018
:10194000FFF7B2FD02E000BFFFF7C2FD6268192198
:1019500048439100B0FBF1F048F21F51C5F2EB1182
:10196000A0FB01235A096FF0630302FB030032233B
:1019700003EB0010A0FB0101F02303EA51132068E0
:1019800003EB0212C1F3431111448160016921F498
:1019900090410161416921F02A014161C16841F42E
:1019A0000051C16000202021206484F83D1084F89B
:1019B0003E1010BD70B586B040F60004C4F20104BC
:1019C000006804F5405100268842049602D006B013
:1019D00070BD00BF41F21800C4F20200016802AD00
:1019E00041F480410160016801F480410191019955
:1019F000016841F0040101600068294600F004001C
:101A0000019001984FF4007002900220039003208F
:101A100005902046FEF7BCFE4FF48060CDE902063B
:101A2000204629460496FEF7B3FE06B070BD0000BE
:101A30002DE9F04381B0044690F83D0020280DD1F7
:101A40000F4600294FF0010000F092801646002A50
:101A500000F08E8094F83C00012803D1022001B0F0
:101A6000BDE8F083012084F83C004FF000092120FC
:101A70001D46C4F8409084F83D00FEF793FFA6840D
:101A8000E684A1688046B1F5805F25D120690028F1
:101A90001CBF38464F463E46074684F83C90E08CD3
:101AA00000B3681C20D0002D66D120680BE000BF79
:101AB00036F8021B00276FF35F214160E18C01398A
:101AC000E184E18C81B30168090675D5002FEFD060
:101AD00017F8011BF1E700BF002684F83C90E08C6A
:101AE0000028DED120681FE0206802E001680906B6
:101AF00009D40168090606D4016809065CBF0168BB
:101B00005FEA0161F2D51FB117F8011B05E000BFC4
:101B100036F8021B00276FF35F214160E18C013929
:101B2000E184E18C0029E4D1016849061CD4002D30
:101B300042D0691C0ED10168490615D401684906D6
:101B40005CBF01685FEA41610ED401684906F2D5C5
:101B50000AE000BFFEF726FFA0EB08012068A942BB
:101B60002AD800684006F5D5202084F83D000020E2
:101B700001B0BDE8F08300BF206800BF016809061E
:101B800008D4FEF70FFFA0EB08012068A942F5D9A1
:101B900012E000BF17B117F8011B04E036F8021B72
:101BA00000276FF35F214160E18C0139E184E18C12
:101BB0000029E3D1B8E700BFC16821F4D071C1604A
:101BC000416921F001014161202084F83D0084F841
:101BD0003E00002084F83C00032001B0BDE8F08303
:101BE000FEE700002DE9F04383B004460068994603
:101BF0000368904643F48062026002680B9D42F4E1
:101C00008072026042690A9ED2070F461DD1711C84
:101C100011D0002E00F03681FEF7C4FE401BB0420A
:101C200000F2328120684169C907F5D00DE000BF9C
:101C30004169C90709D14169C90706D14169C90785
:101C400004BF41695FEAC171F2D007F0FE07076186
:101C50004169890738D44169721C01F4806111D04F
:101C600049BB002E00F03A81FEF79CFE401BB042BB
:101C700000F2368120684169890725D44169490508
:101C8000F2D518E0B9B9416989071DD44169490500
:101C900011D44169890717D4416949050BD44169B9
:101CA000890711D44169490505D4416989070BD4D5
:101CB00041694905E7D5016841F4007101606FF49D
:101CC0008061416104200CE100210291014651F83C
:101CD000142F02924A680292029A0A68120620D4CD
:101CE000002E00F0AB80721C51D10A68520500F141
:101CF000AD800A68120614D40A68520500F1A68065
:101D00000A6812060DD40A68520500F19F800A681D
:101D1000120606D40A68520500F198800A68120675
:101D2000E3D5B9F1010F45D04FEA18210161014611
:101D300051F8142F12063DD4002E00F07F80721C43
:101D40002AD10A68520500F181800A68120631D44E
:101D50000A6852057AD40A6812062BD40A6852051A
:101D600074D40A68120625D40A6852056ED40A682B
:101D70001206E6D51EE000BFFEF714FE401BB0427F
:101D800061D82068014651F8142F1206C9D408689A
:101D90004005F1D55AE000BF0868400556D4FEF76B
:101DA00001FE401BB0424ED82068014651F8142F66
:101DB0001206F1D55FFA88F10161014651F8142F3E
:101DC00012061AD4D6B3721C33D10A6852053DD418
:101DD0000A68120611D40A68520537D40A68120636
:101DE0000BD40A68520531D40A68120605D40A6871
:101DF00052052BD40A681206E7D50168002241F487
:101E00008071016020464FF001113346009500F0CB
:101E100007FA002850D02068006844E0FEF7C2FDB1
:101E2000401BB0420FD82068014651F8142F12060B
:101E3000E3D408684005F1D508E000BF0868400514
:101E400004D4FEF7AFFD202004E000BF6FF48060F3
:101E50000860042000212022216384F83D2084F8BA
:101E60003E10226C1043206484F83C10206C04283F
:101E700043D12068016841F400710160012003B082
:101E8000BDE8F083FEF78EFD00202021206384F85A
:101E90003D1084F83E00216C41F02001216421684E
:101EA00084F83C000868C00544BF4FF4007020640B
:101EB000032003B0BDE8F083206847F00101016111
:101EC0000221C0F20101204632462B4600F050FAB2
:101ED000002818BF012003B0BDE8F083FEF762FDC3
:101EE000202000212022216384F83D2084F83E1028
:101EF000226C1043206484F83C10012003B0BDE83C
:101F0000F08300002DE9F04381B00446006890465C
:101F10000268099D42F4807202604269089E9946F7
:101F2000D2070F461DD1711C11D0002E00F0D280B7
:101F3000FEF738FD401BB04200F2CE8020684169B8
:101F4000C907F5D00DE000BF4169C90709D1416952
:101F5000C90706D14169C90704BF41695FEAC17178
:101F6000F2D007F0FE0101614169890738D4416967
:101F7000721C01F4806111D049BB002E00F0E88092
:101F8000FEF710FD401BB04200F2E480206841697A
:101F9000890725D441694905F2D518E0B9B94169E5
:101FA00089071DD44169490511D44169890717D4AE
:101FB000416949050BD44169890711D44169490533
:101FC00005D4416989070BD441694905E7D5016802
:101FD00041F4007101606FF4806141610420BAE056
:101FE00000210091014651F8142F00924A68009296
:101FF000009A0A6812061ED4002E00F08580721C1A
:102000004DD10A68520500F187800A68120612D481
:102010000A68520500F180800A6812060BD40A682B
:10202000520579D40A68120605D40A68520573D499
:102030000A681206E5D5B9F1010F43D04FEA18211D
:102040000161014651F8142F12063BD4002E5BD0DB
:10205000721C29D10A6852055ED40A68120631D46E
:102060000A68520558D40A6812062BD40A68520529
:1020700052D40A68120625D40A6852054CD40A685C
:102080001206E7D51EE000BFFEF78CFC401BB042F5
:102090003FD82068014651F8142F1206CBD40868A7
:1020A0004005F1D538E000BF0868400534D4FEF79C
:1020B00079FC401BB0422CD82068014651F8142FFF
:1020C0001206F1D55FFA88F10161002001B0BDE888
:1020D000F08300BFFEF766FC00202021206384F817
:1020E0003D1084F83E00216C41F0200121642168FC
:1020F00084F83C000868C00544BF4FF400702064B9
:10210000032001B0BDE8F0830868400504D4FEF761
:1021100049FC202004E000BF6FF4806008600420C8
:1021200000212022216384F83D2084F83E10226C97
:102130001043206484F83C10206C042817D12068D8
:10214000016841F400710160012001B0BDE8F08335
:10215000FEF728FC202000212022216384F83D2066
:1021600084F83E10226C1043206484F83C10012057
:1021700001B0BDE8F083000070B50368044653F871
:10218000140F400737D40E46F1B1701C24D100BFA4
:102190001868400532D4186840072CD418684005E8
:1021A0002CD41868400726D41868400526D418682F
:1021B000400720D41868400520D4186840074FF025
:1021C000000048BF70BDE3E71868400516D4FEF76D
:1021D000E9FB202016E000BF154600BF1868400547
:1021E0000CD4FEF7DFFB401BB042F2D8236853F853
:1021F000140F4007F2D5002070BD00BF6FF480605F
:102200001860042000212022216384F83D2084F8F6
:102210003E10226C10432064012084F83C1070BDF5
:102220002DE9F04105461446DDF8188001F47F00E1
:102230002A681E46B0F5803F8FB241D150693840C0
:10224000C01BB0FA80F04009A0427BD1701C2DD099
:10225000002E7BD0FEF7A6FBA0EB0800B04277D89B
:10226000286840693840C01BB0FA80F04009A0429D
:10227000F0D00020BDE8F08150693840C01BB0FAB2
:1022800080F04009A0425DD150693840C01BB0FACF
:1022900080F04009A04255D150693840C01BB0FAC7
:1022A00080F04009A0424FF000005FD150693840F3
:1022B000C01BB0FA80F04009A042DDD042E000BF70
:1022C00090693840C01BB0FA80F04009A04239D173
:1022D000701C1FD0D6B300BFFEF764FBA0EB080054
:1022E000B04235D8286880693840C01BB0FA80F009
:1022F0004009A042F0D00020BDE8F081906938404C
:10230000C01BB0FA80F04009A0424FF0000018BF97
:10231000BDE8F08190693840C01BB0FA80F04009F8
:10232000A0420FD190693840C01BB0FA80F040093C
:10233000A04207D190693840C01BB0FA80F0400934
:10234000A042DBD00020BDE8F08100BFFEF72AFBF1
:1023500000202021286385F83D1085F83E00296C77
:1023600041F02001296485F83C000120BDE8F0819E
:10237000F0B581B0044600681D4643698FB203EA98
:102380000701B94202D1002001B0F0BD41691646F3
:10239000013201F480610FD059BB9EB3FEF702FBFE
:1023A000401BB04230D8206841693940B942EAD078
:1023B00041694905F2D51CE0D9B941693940B942B2
:1023C000E1D04169490514D441693940B942DAD0B4
:1023D000416949050DD441693940B942D3D04169B9
:1023E000490506D441693940B942CCD04169490513
:1023F000E3D5016841F4007101606FF480614161CF
:10240000042002E0FEF7CEFA2020002120222163E2
:1024100084F83D2084F83E10226C1043206484F838
:102420003C10012001B0F0BD2DE9F04184B001263F
:102430000DF10F00CDE9000640F234004FF47A753B
:10244000C2F20000D021752201230295FEF76CFB39
:102450009DF80F00682834D140F23404C2F2000421
:102460004FF000080DF10E072046D0216B2201230A
:102470008DF80E80CDE900760295FEF771FD0720FC
:102480008DF80E002046D02119220123CDE90076D7
:102490000295FEF765FD2046D0211C2201238DF810
:1024A0000E80CDE900760295FEF75AFD2046D02138
:1024B0001B2201238DF80E80CDE900760295FEF7F0
:1024C0004FFD04B0BDE8F081F0B585B006200DF1F8
:1024D0000E01CDE9001040F234004FF47A77C2F2D9
:1024E0000000D0213B2201230297FEF71DFBBDF81F
:1024F0000E0040F2100501BABDF81070090CC2F2CE
:102500000005298039BABDF81260090C698031BA1A
:10251000090CC0BAA980FDF7E6FE0024C3F61074CA
:1025200000222346FDF7FEFDFDF701FFE860F8BA43
:10253000FDF7D9FE00222346FDF7F4FDFDF7F7FE77
:102540002861F0BAFDF7CFFE00222346FDF7EAFD31
:10255000FDF7EDFE686105B0F0BD0000F0B585B097
:1025600006200DF10E01CDE9001040F234004FF4C9
:102570007A77C2F20000D021432201230297FEF7AE
:10258000D3FABDF80E0040F2100501BABDF8107084
:10259000090CC2F20005E98039BABDF81260090CD5
:1025A000298131BA090CC0BA6981FDF79CFE46F257
:1025B0000004C4F2600400222346FDF725FEFDF767
:1025C000B6FEA861F8BAFDF78EFE00222346FDF79D
:1025D0001BFEFDF7ACFEE861F0BAFDF784FE0022B9
:1025E0002346FDF711FEFDF7A2FE286205B0F0BDFF
:1025F00081B041F21800C4F20200016841F01001FC
:102600000160016801F0100100910099016841F03A
:1026100020010160016801F020010091009901682A
:1026200041F004010160016801F00401009100998A
:10263000016841F008010160006800F008000090A6
:10264000009801B07047000080B540F2340045F2B8
:102650000041C2F20000C4F2000148F2A06200236F
:102660004FF4804CC0F2010280E80E00C0E9033C48
:10267000C0E90533C0E90733FEF79AF9002808BF1F
:1026800080BDBDE88040FEF769B8000080B540F22B
:10269000880043F60001C2F20000C4F201010023E9
:1026A0004FF00C0C4FF4165280E80E00C0E90333D3
:1026B000C0E905C3C361FFF70FF9002808BF80BD5B
:1026C000BDE88040FEF74AB8FEE70000FEE70000E4
:1026D0007047000070470000FEF762BD70470000C1
:1026E000FEE7000080B582B0019040F28800C2F29F
:1026F000000001A901224FF6FF73FFF799F9019835
:1027000002B080BD90B0FEF759FD00240120CDE954
:102710000B44CDE9094406900A904FF4E0104FF4C1
:10272000803102250F9006A8CDE90714CDE90D519F
:10273000FEF7E2FE20B1EFF3108072B6FEE700BFB5
:102740000F20CDE901054FF48060CDE9040401A814
:1027500002210394FEF7C8FD20B1EFF3108072B69A
:10276000FEE700BFFFF744FFFFF76EFFFFF78EFFA6
:10277000FFF75AFE43F2D21440F2280840F22C0B25
:1027800040F23009C0F600040FF2D00AC2F200088D
:1027900036A5C2F2000B38A6C2F2000939A700BF65
:1027A000FFF792FEFFF7DAFE204600F0EBFC40F266
:1027B0001C00C2F200000068FDF7A6FD02461FA043
:1027C0000B4600F065F840F22000C2F200000068FD
:1027D000FDF79AFD02461DA00B4600F059F840F2A5
:1027E0002400C2F200000068FDF78EFD024650464C
:1027F0000B4600F04DF8D8F80000FDF785FD0246C5
:1028000028460B4600F044F8DBF80000FDF77CFD9D
:10281000024630460B4600F03BF8D9F80000FDF7C1
:1028200073FD024638460B4600F032F8204600F0B1
:10283000A9FC4FF47A70FDF797FFB1E74178203D8E
:1028400020252E326620670A000000004179203DD5
:1028500020252E326620670A00000000417A203DC4
:1028600020252E326620670A000000004778203DB0
:1028700020252E32660A00004779203D20252E3281
:10288000660A0000477A203D20252E32660A0000A5
:102890000FB4054B10B503A9044A029800F0DAF80A
:1028A00010BC5DF814FB0000E526000800000020C5
:1028B00002E008C8121F08C1002AFAD17047704709
:1028C000002001E001C1121F002AFBD17047000067
:1028D0002DE9FF5F82B00021DDE90430020DDDF853
:1028E00040B0034318D044F61050A2F2FF324243E6
:1028F0001514119801281FD0A5EB0B00401C5FEAAE
:10290000000A4FF000064E4FDFF83891B0465046AF
:1029100015D5CAF1000413E0119801244AA3012837
:1029200001D16FEA0B010298119AC0E90031C0E9A8
:10293000024206B0BDE8F09FCBF10000DFE704469D
:102940000021404A491842EB0450CDE9001012E042
:10295000E00707D032463B4640464946FDF7E2FBDA
:102960008046894632463B4610461946FDF7DAFB5B
:1029700006460F466410002CEAD1DDE90401DDE9CA
:102980000023BAF1000F06DAFDF7CCFB42464B46B6
:10299000FDF7C8FB05E0FDF737FC42464B46FDF767
:1029A00033FC04460E460022284BFDF777FE03D881
:1029B0004FF0FF30014607E00022254B204631460C
:1029C000FDF7ACFDFDF751FE102409E0002C0ADBF9
:1029D0000A220023FDF7DDFC039B30321A55641EEA
:1029E00050EA0102F2D1641C039AC4F111031444A9
:1029F000119A012A03D0012208430DD10AE00843AD
:102A000004D000204FF0110B119072E7A3EB0B05DF
:102A10006D1E0DE05B4504DD4FF0000205F1010580
:102A200004E003DA4FF00002A5F10105002AECD022
:102A300002981199C0E90231C0E9004579E7000028
:102A4000000014400000F03F300000000000F043A0
:102A50000000E03F2DE9FF4F95B09B4689460646B2
:102A600000250FE2252877D100242746F84A0121C6
:102A7000059400E0044316F8013F203B01FA03F0FF
:102A80001042F7D130782A2811D06FF02F03307818
:102A9000A0F13002092A16D8059A44F0020402EB8C
:102AA000820203EB42021044761C0590EFE759F8CE
:102AB000042B0592002A03DA504244F40054059096
:102AC00044F00204761C30782E2816D116F8010F37
:102AD00044F004042A280DD06FF02F023078A0F1C2
:102AE0003003092B09D807EB870302EB4303C71810
:102AF000761CF3E759F8047B761C30786C280FD0ED
:102B000006DC4C2817D068280DD06A2814D104E0C0
:102B1000742810D07A280FD10DE044F400140AE094
:102B200044F4801401E044F440147278824202D1EB
:102B300004F58014761C761C307866280BD013DCE4
:102B4000582877D009DC002875D04528F6D04628CB
:102B5000F4D047281AD19DE118E0632835D06428C5
:102B600079D0652812D195E1702873D008DC6728E8
:102B7000F1D069286FD06E280DD06F2806D1B5E04E
:102B800073282CD0752875D0782874D05A46179998
:102B900090476D1C75E1C4F30250022809D0032848
:102BA0000DD0D9F8001004280DD00D6009F10409EA
:102BB00067E1D9F80010EA17C1E90052F6E7D9F841
:102BC00000100D80F2E70D70F0E719F8041B8DF886
:102BD000001000208DF80100EA46012003E059F8BA
:102BE00004AB4FF0FF3061074FF0000102D40DE05D
:102BF00008F101018846B9420FDA8045F8DB1AF87E
:102C000008100029F4D108E008F10101884681424A
:102C1000FADB1AF808100029F6D105985B46A0EBFC
:102C2000080721463846179A00F094FA284400EB2A
:102C3000080507E04DE029E10DE01AF8010B5A46BE
:102C400017999047B8F10108F7D25B4621463846FC
:102C5000179A13E142E00A220092C4F302524FF0A5
:102C6000000A022A08D059F804CB032A4FEAEC7173
:102C70000AD00DE029E02AE009F1070121F007025E
:102C8000F2E802C1914609E00FFA8CFC4FEAEC71C0
:102C9000042A03D14FFA8CFC4FEAEC71002907DAC1
:102CA0000A460021DCF1000C61EB02012D2202E05A
:102CB000220504D52B228DF80420012203E0E2072F
:102CC00001D02022F7E7904659E00A2102E01022C5
:102CD0000DE010214FF0000A00910BE010224FF0A0
:102CE000000A44F004040827009203E008224FF091
:102CF000000A0092C4F30252022A05D059F804CB0C
:102D00000021032A08D009E009F1070121F0070298
:102D1000F2E802C1914605E01FFA8CFC042A01D1B9
:102D20000CF0FF0C4FF00008220728D5702806D0C1
:102D3000009B83F0100353EA0A0305D00EE0402203
:102D40008DF80420012208E05CEA010206D030225E
:102D50008DF804208DF8050002229046009B83F038
:102D6000080353EA0A030AD15CEA010201D16207AF
:102D700005D530228DF804204FF001087F1E582819
:102D800004D034A003900EA802900DE036A0F9E71D
:102D900053466046009AFDF7FCFA84460398825C2D
:102DA0000298401E029002705CEA0100F0D1029885
:102DB00006A9081A00F1200A600702D524F480341D
:102DC00000E00127574502DDA7EB0A0000E00020E4
:102DD00000EB0A01009005984144401A0590E00379
:102DE00006D45B462146179A059800F0B3F90544CE
:102DF000002706E001A85A46C05D179990476D1C50
:102E00007F1C4745F6DBE0030CD55B462146179A4D
:102E1000059800F09FF9054404E030205A461799C0
:102E200090476D1C0099481E00900029F5DC08E0D1
:102E3000029802995A460078491C029117999047C6
:102E40006D1CBAF10001AAF1010AF1DC65E1000094
:102E50000928010030313233343536373839616270
:102E60006364656600000000303132333435363734
:102E700038394142434445460000000000F058F90B
:102E80000544761C307800287FF4ECAD19B0284654
:102E9000BDE8F08F620700D4062709F1070222F08F
:102EA000070CFCE80223E14603F000485FEA080C47
:102EB00002D00FF2702C0DE05FEA045C02D50FF235
:102EC000682C07E05FEAC47C02D00FF2602C01E0BE
:102ED000AFF2700C4FF0FF3823F00043CDF850C034
:102EE00065280CD006DC452809D046281DD0472887
:102EF0003DD13DE0662818D067287ED138E000211A
:102F0000112F01DB112000E0781CCDE9000106A99A
:102F10000EA8FFF7DDFCDDE90F010E9A03910021F9
:102F2000009207F1010A04914DE04FF00040009734
:102F3000CDE9011006A90EA8FFF7CAFCDDE90F02D2
:102F400003920E9B11990022DDF80CA000930492CD
:102F500011B9791C00EB010AB7EB0A0004D4C0F1E7
:102F6000FF3007F1010A0490AAEB0700019044E04A
:102F7000012F00DA01270021112F01DD112000E0CF
:102F80003846CDE9000106A90EA8FFF7A1FCDDE94E
:102F90000F010E9A0391002104910092BA46210775
:102FA0000CD40399514500DA8A46BAF1010F05DDC8
:102FB000009AAAF10101515C302908D0B84202DA26
:102FC00010F1040F06DA0121CDE9011015E0AAF194
:102FD0000101E9E7002805DC049901440491AAEB0A
:102FE000000102E0411C514500DD8A460499401A67
:102FF000401C01904FF000400290200704D401983B
:10300000504501DBCDF8048000208DF84F00029878
:103010000DF14F07B0F1004F25D02B200E900298F4
:103020004FF0020800280CDA404202902D200E904A
:1030300007E00A210298FDF796F93031029007F86F
:10304000011DB8F10001A8F10108F2DC0298002886
:10305000EFD1791E0E980870307800F0200040F013
:10306000450007F8020D12A8C01B00F107081498CC
:10307000007800B1012000EB0A01019801EBE0713A
:1030800005984144401A401E0590E00306D45B4673
:103090002146179A059800F05DF8054414980078C9
:1030A00018B15A46179990476D1CE00324D55B462A
:1030B0002146179A059800F04DF805441CE0049845
:1030C000002807DBDDE90301884203DD0098405C4E
:1030D000179901E0179930205A469047049805F156
:1030E0000105401C04900198401E019004D12E203F
:1030F0005A46179990476D1CBAF10001AAF1010ACE
:10310000DDDC05E017F8010B5A46179990476D1C56
:10311000B8F10001A8F10108F4DC5B462146179ADA
:103120000598ABE62D0000002B00000020000000F9
:103130002DE9F041044600251E461746880404D4B4
:1031400005E039462020B0476D1C641EF9D528469D
:10315000BDE8F0812DE9F041044600251E46904669
:10316000C80301D5302700E02027880404D505E0F6
:1031700041463846B0476D1C641EF9D52846BDE867
:10318000F081000010B5044601E0FFF7ABFA14F837
:10319000010B04490028F8D1BDE810400A20FFF7D0
:1031A000A1BA0000000000200102000000000000A1
:1031B00000000102030406070809000000000102E4
:1031C000030402030405060708090A0B0C0D0E0F81
:1031D00010103D3D3D3D3D3D3D3D3D3D3D3D3D3D79
:1031E0003D3D3D3D3D3D000008320008000000200F
:1031F00010000000B028000818320008100000205D
:10320000C0040000C0280008000000000100000009
:08321000100000000024F4008E
:04000005080000ED02
:00000001FF
